{
  "contractName": "hello",
  "abi": [
    {
      "anonymous": false,
      "inputs": [
        {
          "indexed": true,
          "internalType": "address",
          "name": "previousOwner",
          "type": "address"
        },
        {
          "indexed": true,
          "internalType": "address",
          "name": "newOwner",
          "type": "address"
        }
      ],
      "name": "OwnershipTransferred",
      "type": "event"
    },
    {
      "inputs": [],
      "name": "owner",
      "outputs": [
        {
          "internalType": "address",
          "name": "",
          "type": "address"
        }
      ],
      "stateMutability": "view",
      "type": "function",
      "constant": true
    },
    {
      "inputs": [],
      "name": "renounceOwnership",
      "outputs": [],
      "stateMutability": "nonpayable",
      "type": "function"
    },
    {
      "inputs": [
        {
          "internalType": "address",
          "name": "newOwner",
          "type": "address"
        }
      ],
      "name": "transferOwnership",
      "outputs": [],
      "stateMutability": "nonpayable",
      "type": "function"
    },
    {
      "inputs": [],
      "name": "greet",
      "outputs": [
        {
          "internalType": "string",
          "name": "",
          "type": "string"
        }
      ],
      "stateMutability": "view",
      "type": "function",
      "constant": true
    },
    {
      "inputs": [
        {
          "internalType": "string",
          "name": "_newGreeting",
          "type": "string"
        }
      ],
      "name": "setGreetie",
      "outputs": [],
      "stateMutability": "nonpayable",
      "type": "function"
    }
  ],
  "bytecode": "0x60806040526040518060400160405280600781526020017f48656c6c6f2c20000000000000000000000000000000000000000000000000008152506001908051906020019061004f929190610196565b506040518060400160405280600681526020017f576f726c642100000000000000000000000000000000000000000000000000008152506002908051906020019061009b929190610196565b503480156100a857600080fd5b506100c56100ba6100ca60201b60201c565b6100d260201b60201c565b61029a565b600033905090565b60008060009054906101000a900473ffffffffffffffffffffffffffffffffffffffff169050816000806101000a81548173ffffffffffffffffffffffffffffffffffffffff021916908373ffffffffffffffffffffffffffffffffffffffff1602179055508173ffffffffffffffffffffffffffffffffffffffff168173ffffffffffffffffffffffffffffffffffffffff167f8be0079c531659141344cd1fd0a4f28419497f9722a3daafe3b4186f6b6457e060405160405180910390a35050565b8280546101a290610268565b90600052602060002090601f0160209004810192826101c4576000855561020b565b82601f106101dd57805160ff191683800117855561020b565b8280016001018555821561020b579182015b8281111561020a5782518255916020019190600101906101ef565b5b509050610218919061021c565b5090565b5b8082111561023557600081600090555060010161021d565b5090565b7f4e487b7100000000000000000000000000000000000000000000000000000000600052602260045260246000fd5b6000600282049050600182168061028057607f821691505b6020821081141561029457610293610239565b5b50919050565b61093380620002aa6000396000f3fe608060405234801561001057600080fd5b50600436106100575760003560e01c8063715018a61461005c5780638da5cb5b14610066578063cfae321714610084578063f2fde38b146100a2578063fe3cb418146100be575b600080fd5b6100646100da565b005b61006e610162565b60405161007b91906104f0565b60405180910390f35b61008c61018b565b60405161009991906105a4565b60405180910390f35b6100bc60048036038101906100b791906105fc565b6101b6565b005b6100d860048036038101906100d3919061068e565b6102ae565b005b6100e2610340565b73ffffffffffffffffffffffffffffffffffffffff16610100610162565b73ffffffffffffffffffffffffffffffffffffffff1614610156576040517f08c379a000000000000000000000000000000000000000000000000000000000815260040161014d90610727565b60405180910390fd5b6101606000610348565b565b60008060009054906101000a900473ffffffffffffffffffffffffffffffffffffffff16905090565b6060600160026040516020016101a2929190610847565b604051602081830303815290604052905090565b6101be610340565b73ffffffffffffffffffffffffffffffffffffffff166101dc610162565b73ffffffffffffffffffffffffffffffffffffffff1614610232576040517f08c379a000000000000000000000000000000000000000000000000000000000815260040161022990610727565b60405180910390fd5b600073ffffffffffffffffffffffffffffffffffffffff168173ffffffffffffffffffffffffffffffffffffffff1614156102a2576040517f08c379a0000000000000000000000000000000000000000000000000000000008152600401610299906108dd565b60405180910390fd5b6102ab81610348565b50565b6102b6610340565b73ffffffffffffffffffffffffffffffffffffffff166102d4610162565b73ffffffffffffffffffffffffffffffffffffffff161461032a576040517f08c379a000000000000000000000000000000000000000000000000000000000815260040161032190610727565b60405180910390fd5b81816002919061033b92919061040c565b505050565b600033905090565b60008060009054906101000a900473ffffffffffffffffffffffffffffffffffffffff169050816000806101000a81548173ffffffffffffffffffffffffffffffffffffffff021916908373ffffffffffffffffffffffffffffffffffffffff1602179055508173ffffffffffffffffffffffffffffffffffffffff168173ffffffffffffffffffffffffffffffffffffffff167f8be0079c531659141344cd1fd0a4f28419497f9722a3daafe3b4186f6b6457e060405160405180910390a35050565b82805461041890610776565b90600052602060002090601f01602090048101928261043a5760008555610481565b82601f1061045357803560ff1916838001178555610481565b82800160010185558215610481579182015b82811115610480578235825591602001919060010190610465565b5b50905061048e9190610492565b5090565b5b808211156104ab576000816000905550600101610493565b5090565b600073ffffffffffffffffffffffffffffffffffffffff82169050919050565b60006104da826104af565b9050919050565b6104ea816104cf565b82525050565b600060208201905061050560008301846104e1565b92915050565b600081519050919050565b600082825260208201905092915050565b60005b8381101561054557808201518184015260208101905061052a565b83811115610554576000848401525b50505050565b6000601f19601f8301169050919050565b60006105768261050b565b6105808185610516565b9350610590818560208601610527565b6105998161055a565b840191505092915050565b600060208201905081810360008301526105be818461056b565b905092915050565b600080fd5b600080fd5b6105d9816104cf565b81146105e457600080fd5b50565b6000813590506105f6816105d0565b92915050565b600060208284031215610612576106116105c6565b5b6000610620848285016105e7565b91505092915050565b600080fd5b600080fd5b600080fd5b60008083601f84011261064e5761064d610629565b5b8235905067ffffffffffffffff81111561066b5761066a61062e565b5b60208301915083600182028301111561068757610686610633565b5b9250929050565b600080602083850312156106a5576106a46105c6565b5b600083013567ffffffffffffffff8111156106c3576106c26105cb565b5b6106cf85828601610638565b92509250509250929050565b7f4f776e61626c653a2063616c6c6572206973206e6f7420746865206f776e6572600082015250565b6000610711602083610516565b915061071c826106db565b602082019050919050565b6000602082019050818103600083015261074081610704565b9050919050565b7f4e487b7100000000000000000000000000000000000000000000000000000000600052602260045260246000fd5b6000600282049050600182168061078e57607f821691505b602082108114156107a2576107a1610747565b5b50919050565b600081905092915050565b60008190508160005260206000209050919050565b600081546107d581610776565b6107df81866107a8565b945060018216600081146107fa576001811461080b5761083e565b60ff1983168652818601935061083e565b610814856107b3565b60005b8381101561083657815481890152600182019150602081019050610817565b838801955050505b50505092915050565b600061085382856107c8565b915061085f82846107c8565b91508190509392505050565b7f4f776e61626c653a206e6577206f776e657220697320746865207a65726f206160008201527f6464726573730000000000000000000000000000000000000000000000000000602082015250565b60006108c7602683610516565b91506108d28261086b565b604082019050919050565b600060208201905081810360008301526108f6816108ba565b905091905056fea264697066735822122057a76323ea33ef1d065a2c30120e5ce64e90e7686118c3ee800e98ae5d3d242364736f6c63430008090033",
  "immutableReferences": {},
  "source": "// SPDX-License-Identifier: MIT\npragma solidity >=0.4.22 <0.9.0;\n\nimport \"@openzeppelin/contracts/access/Ownable.sol\";\n\ncontract hello is Ownable{\n  string private _greeting = \"Hello, \";\n  string private _greetie = \"World!\";\n  function greet() external view returns (string memory) {\n    return string(abi.encodePacked(_greeting, _greetie));\n  }\n\n  // Create a function that allows us to change 'greetie' \n  // Ensure the function to only callable by the owner.\n\n  function setGreetie(string calldata _newGreeting) external onlyOwner {\n    _greetie = _newGreeting;\n\n  }\n}\n",
  "sourcePath": "/Users/meechai/Desktop/solidity-svelte/contracts/hello.sol",
  "compiler": {
    "name": "solc",
    "version": "0.8.9+commit.e5eed63a.Emscripten.clang"
  },
  "schemaVersion": "3.4.3",
  "updatedAt": "2021-11-05T17:47:07.689Z",
  "networkType": "ethereum",
  "devdoc": {
    "kind": "dev",
    "methods": {
      "owner()": {
        "details": "Returns the address of the current owner."
      },
      "renounceOwnership()": {
        "details": "Leaves the contract without owner. It will not be possible to call `onlyOwner` functions anymore. Can only be called by the current owner. NOTE: Renouncing ownership will leave the contract without an owner, thereby removing any functionality that is only available to the owner."
      },
      "transferOwnership(address)": {
        "details": "Transfers ownership of the contract to a new account (`newOwner`). Can only be called by the current owner."
      }
    },
    "version": 1
  },
  "userdoc": {
    "kind": "user",
    "methods": {},
    "version": 1
  }
}